{
  "transactions": [
    {
      "hash": "0x960b99642e540f20872a56b4f1e8853d4e469faf7ba1ba2799f994c9a37eb2a0",
      "transactionType": "CALL",
      "contractName": null,
      "contractAddress": "0xa031e87b079aE109Fc9d76094434A04c3D4111A9",
      "function": "setPoolImpl(address)",
      "arguments": [
        "0x61F3792D4EA8709646Ce5DB4c3bE1603cee8b5e7"
      ],
      "transaction": {
        "from": "0x755AC4E90c24135f1B7f73AeEA6a7ff42b07dd94",
        "to": "0xa031e87b079aE109Fc9d76094434A04c3D4111A9",
        "gas": "0x10155",
        "value": "0x0",
        "input": "0xa156440600000000000000000000000061f3792d4ea8709646ce5db4c3be1603cee8b5e7",
        "nonce": "0x15",
        "chainId": "0x3cd156dc"
      },
      "additionalContracts": [],
      "isFixedGasLimit": false
    },
    {
      "hash": "0x69682267f7ac8e198d5b3b19df46c18d7515bd49eac8e390e046089c352b22e6",
      "transactionType": "CALL",
      "contractName": null,
      "contractAddress": "0xa031e87b079aE109Fc9d76094434A04c3D4111A9",
      "function": "setPriceOracle(address)",
      "arguments": [
        "0x8CAb6A8589Ab05e7277177CA1cD7f28594D75800"
      ],
      "transaction": {
        "from": "0x755AC4E90c24135f1B7f73AeEA6a7ff42b07dd94",
        "to": "0xa031e87b079aE109Fc9d76094434A04c3D4111A9",
        "gas": "0x11089",
        "value": "0x0",
        "input": "0x530e784f0000000000000000000000008cab6a8589ab05e7277177ca1cd7f28594d75800",
        "nonce": "0x16",
        "chainId": "0x3cd156dc"
      },
      "additionalContracts": [],
      "isFixedGasLimit": false
    },
    {
      "hash": "0xadac66581e6fbebea1286c62f6e80c5a8415a4c98171f69d379acf7f9c259e66",
      "transactionType": "CALL",
      "contractName": null,
      "contractAddress": "0xa031e87b079aE109Fc9d76094434A04c3D4111A9",
      "function": "setPoolDataProvider(address)",
      "arguments": [
        "0x4773aF4C57BEB5BcE59b661b8ef8DA2bF35eB97A"
      ],
      "transaction": {
        "from": "0x755AC4E90c24135f1B7f73AeEA6a7ff42b07dd94",
        "to": "0xa031e87b079aE109Fc9d76094434A04c3D4111A9",
        "gas": "0x110b9",
        "value": "0x0",
        "input": "0xe44e9ed10000000000000000000000004773af4c57beb5bce59b661b8ef8da2bf35eb97a",
        "nonce": "0x17",
        "chainId": "0x3cd156dc"
      },
      "additionalContracts": [],
      "isFixedGasLimit": false
    },
    {
      "hash": "0x8346748cf00b8ad5bc5687f3d6aa439ceb2049c8fc90a080f1778e35b33a5cc8",
      "transactionType": "CALL",
      "contractName": null,
      "contractAddress": "0xa031e87b079aE109Fc9d76094434A04c3D4111A9",
      "function": "setPoolConfiguratorImpl(address)",
      "arguments": [
        "0xe8Ee52769E88C78b841cfE43B5C460Ca6342c156"
      ],
      "transaction": {
        "from": "0x755AC4E90c24135f1B7f73AeEA6a7ff42b07dd94",
        "to": "0xa031e87b079aE109Fc9d76094434A04c3D4111A9",
        "gas": "0x11037",
        "value": "0x0",
        "input": "0xe4ca28b7000000000000000000000000e8ee52769e88c78b841cfe43b5c460ca6342c156",
        "nonce": "0x18",
        "chainId": "0x3cd156dc"
      },
      "additionalContracts": [],
      "isFixedGasLimit": false
    }
  ],
  "receipts": [
    {
      "status": "0x1",
      "cumulativeGasUsed": "0xb027",
      "logs": [
        {
          "address": "0xa031e87b079aE109Fc9d76094434A04c3D4111A9",
          "topics": [
            "0x90affc163f1a2dfedcd36aa02ed992eeeba8100a4014f0b4cdc20ea265a66627",
            "0x0000000000000000000000000000000000000000000000000000000000000000",
            "0x00000000000000000000000061f3792d4ea8709646ce5db4c3be1603cee8b5e7"
          ],
          "data": "0x",
          "blockHash": "0x808628363a91dee111d7df2e522959b4fbd7ccc38944b3479b2dcd6c1a5ae34b",
          "blockNumber": "0x24ab2e",
          "transactionHash": "0x960b99642e540f20872a56b4f1e8853d4e469faf7ba1ba2799f994c9a37eb2a0",
          "transactionIndex": "0x0",
          "logIndex": "0x0",
          "removed": false
        }
      ],
      "logsBloom": "0x00000000000000000000000010000000000000000000000000000000000000000002000000000000000000000000000000000000000000000000000000000000000000000000000000000000800000000000000000000000000000000000000000000000020000000000000000000800000000000010000000000000000000000000000000000000000000000000000000000000000000000000000000000000000000000000000000000000000000000000000000800000000000000000000000000000000000000000000000800000000000000000000000010000000020000000000000000000000000000000000000000002000000000000000000000001",
      "type": "0x0",
      "transactionHash": "0x960b99642e540f20872a56b4f1e8853d4e469faf7ba1ba2799f994c9a37eb2a0",
      "transactionIndex": "0x0",
      "blockHash": "0x808628363a91dee111d7df2e522959b4fbd7ccc38944b3479b2dcd6c1a5ae34b",
      "blockNumber": "0x24ab2e",
      "gasUsed": "0xb027",
      "effectiveGasPrice": "0x186a0",
      "from": "0x755AC4E90c24135f1B7f73AeEA6a7ff42b07dd94",
      "to": "0xa031e87b079aE109Fc9d76094434A04c3D4111A9",
      "contractAddress": null
    },
    {
      "status": "0x1",
      "cumulativeGasUsed": "0xb032",
      "logs": [
        {
          "address": "0xa031e87b079aE109Fc9d76094434A04c3D4111A9",
          "topics": [
            "0x56b5f80d8cac1479698aa7d01605fd6111e90b15fc4d2b377417f46034876cbd",
            "0x0000000000000000000000000000000000000000000000000000000000000000",
            "0x0000000000000000000000008cab6a8589ab05e7277177ca1cd7f28594d75800"
          ],
          "data": "0x",
          "blockHash": "0xfe99f75bae873e3fb90c3f9df20cec2457c530a739e3b0de707b941cc4bf0e4a",
          "blockNumber": "0x24ab2f",
          "transactionHash": "0x69682267f7ac8e198d5b3b19df46c18d7515bd49eac8e390e046089c352b22e6",
          "transactionIndex": "0x0",
          "logIndex": "0x0",
          "removed": false
        }
      ],
      "logsBloom": "0x00000000000000000000000010000000000000000000000000000000000000000002000000000000000000000000000000000000000000000000001000000000000000000000000000000000000000000000000000000000000000000000000000000000020000000000000000000800000000000000000000000000000000000800000000000000000000000000000000000000000000000000000000000000000000000000000000000014000000080000000000800000000000000000000000000000000000000000000000000000000000000000000000000000000020000000000000000000000000000000000000000002000000000000000000000000",
      "type": "0x0",
      "transactionHash": "0x69682267f7ac8e198d5b3b19df46c18d7515bd49eac8e390e046089c352b22e6",
      "transactionIndex": "0x0",
      "blockHash": "0xfe99f75bae873e3fb90c3f9df20cec2457c530a739e3b0de707b941cc4bf0e4a",
      "blockNumber": "0x24ab2f",
      "gasUsed": "0xb032",
      "effectiveGasPrice": "0x186a0",
      "from": "0x755AC4E90c24135f1B7f73AeEA6a7ff42b07dd94",
      "to": "0xa031e87b079aE109Fc9d76094434A04c3D4111A9",
      "contractAddress": null
    },
    {
      "status": "0x1",
      "cumulativeGasUsed": "0x16085",
      "logs": [
        {
          "address": "0xa031e87b079aE109Fc9d76094434A04c3D4111A9",
          "topics": [
            "0xc853974cfbf81487a14a23565917bee63f527853bcb5fa54f2ae1cdf8a38356d",
            "0x0000000000000000000000000000000000000000000000000000000000000000",
            "0x0000000000000000000000004773af4c57beb5bce59b661b8ef8da2bf35eb97a"
          ],
          "data": "0x",
          "blockHash": "0xfe99f75bae873e3fb90c3f9df20cec2457c530a739e3b0de707b941cc4bf0e4a",
          "blockNumber": "0x24ab2f",
          "transactionHash": "0xadac66581e6fbebea1286c62f6e80c5a8415a4c98171f69d379acf7f9c259e66",
          "transactionIndex": "0x1",
          "logIndex": "0x0",
          "removed": false
        }
      ],
      "logsBloom": "0x00000000000000000000000010000000000000000000000000000000000000000002000000000000000000000000000000000000000000000000000000000000000000000000000000000000000000000000000000000080000000000000000000000000020000008000000000000800000000000000000000000000000000000000000000200000000000000000000000000000000000000000000000000000000000000000000000000000000000000200000000000000000000000000000000010000000000000000000000000000000000000000000000800000000020000000000000000000000000000000000000000002000000000000000000000000",
      "type": "0x0",
      "transactionHash": "0xadac66581e6fbebea1286c62f6e80c5a8415a4c98171f69d379acf7f9c259e66",
      "transactionIndex": "0x1",
      "blockHash": "0xfe99f75bae873e3fb90c3f9df20cec2457c530a739e3b0de707b941cc4bf0e4a",
      "blockNumber": "0x24ab2f",
      "gasUsed": "0xb053",
      "effectiveGasPrice": "0x186a0",
      "from": "0x755AC4E90c24135f1B7f73AeEA6a7ff42b07dd94",
      "to": "0xa031e87b079aE109Fc9d76094434A04c3D4111A9",
      "contractAddress": null
    },
    {
      "status": "0x1",
      "cumulativeGasUsed": "0x2107f",
      "logs": [
        {
          "address": "0xa031e87b079aE109Fc9d76094434A04c3D4111A9",
          "topics": [
            "0x8932892569eba59c8382a089d9b732d1f49272878775235761a2a6b0309cd465",
            "0x0000000000000000000000000000000000000000000000000000000000000000",
            "0x000000000000000000000000e8ee52769e88c78b841cfe43b5c460ca6342c156"
          ],
          "data": "0x",
          "blockHash": "0xfe99f75bae873e3fb90c3f9df20cec2457c530a739e3b0de707b941cc4bf0e4a",
          "blockNumber": "0x24ab2f",
          "transactionHash": "0x8346748cf00b8ad5bc5687f3d6aa439ceb2049c8fc90a080f1778e35b33a5cc8",
          "transactionIndex": "0x2",
          "logIndex": "0x0",
          "removed": false
        }
      ],
      "logsBloom": "0x00000000000000000000000014000000000000000000000000000000000000000002000000000000000000000000000000000000000000000000000000000000000000000000000000800000000000000000000000000000000000000000000000000000020000000000000000000800000000000000000000000000000000000000000000000000020000000000000000000000000000000000010100000000000000000000000000000000000000000000000000000000000000000000000000000000000000000000000000000000000000000000000000000000000020000000000000000000000000000000000000000002000000000200000000000000",
      "type": "0x0",
      "transactionHash": "0x8346748cf00b8ad5bc5687f3d6aa439ceb2049c8fc90a080f1778e35b33a5cc8",
      "transactionIndex": "0x2",
      "blockHash": "0xfe99f75bae873e3fb90c3f9df20cec2457c530a739e3b0de707b941cc4bf0e4a",
      "blockNumber": "0x24ab2f",
      "gasUsed": "0xaffa",
      "effectiveGasPrice": "0x186a0",
      "from": "0x755AC4E90c24135f1B7f73AeEA6a7ff42b07dd94",
      "to": "0xa031e87b079aE109Fc9d76094434A04c3D4111A9",
      "contractAddress": null
    }
  ],
  "libraries": [],
  "pending": [],
  "returns": {},
  "timestamp": 1731769762,
  "chain": 1020352220,
  "commit": "0ffe866"
}